:1000000034C1000063C1000061C100005FC1000095
:100010005DC100005BC1000059C1000057C1000074
:1000200055C100000C9486160C9486160C94861606
:100030004DC100004BC1000049C1000047C1000094
:1000400045C1000043C1000041C100003FC10000A4
:100050003DC100003BC1000039C100000C94771481
:1000600035C100000C94A0130C9477132FC100002D
:100070002DC100002BC1000029C1000027C10000D4
:1000800025C1000023C1000021C100001FC10000E4
:100090000C944E130C94251319C100000C94C11438
:1000A00015C1000013C1000011C100000FC1000004
:1000B0000DC100000BC1000009C1000007C1000014
:1000C00005C1000003C1000001C100000C94FC1236
:1000D0000C94D312FBC000000C94AA120C94811251
:1000E000F5C00000920E920EB30EB30EA906AC0E30
:1000F000C40EC40EC40EC40EC40EC40EC40EC40E70
:10010000920EB30ECA06CA06280F280F5E0F9C0F68
:1001100000070007000700070007000700070007A7
:10012000AB0FFC0F61116411531157115D119B113D
:1001300068116C11721176117A1180118411881175
:100140009B118E11921196110000200023002600B1
:1001500029002C002F0032000001000003010601DD
:10016000090100002200250028002B002E0031008C
:10017000340002010000050108010B0100000A0B18
:1001800002090C0D0E080703040100000000000026
:10019000000000000000000000000000000000005F
:1001A000000000000000000012111000000000001C
:1001B000000000000000000000000000000000003F
:1001C000000000002100240027002A002D0030003C
:1001D000330001010000040107010A01010210209F
:1001E000200808102040102040800201020108046D
:1001F0000201010204081020408080402010080401
:100200000201800402018040201008040201080459
:10021000020101020408102040800102040810209D
:1002200040800505050507050808080802020202C6
:100230000A0A080804040404010101010101010182
:100240000303030303030303040707070C0C0C0C4D
:100250000C0C0C0C02020202060606060606060636
:100260000B0B0B0B0B0B0B0B6A3311241FBECFEFC9
:10027000D1E2DEBFCDBF00E00CBF12E0A0E0B2E0F3
:10028000E2E6FEE600E00BBF02C007900D92AE363C
:10029000B107D9F72AE0AEE6B2E001C01D92A13C59
:1002A000B207E1F711E0C5E3D1E000E006C0219715
:1002B0000109802FFE010E942337C433D10780E05B
:1002C0000807A9F70E946A1E0C942F3799CE4F9207
:1002D0005F926F927F928F929F92AF92BF92CF92D6
:1002E000DF92EF92FF920F931F93CF93DF9300D093
:1002F00000D0CDB7DEB79E838D832A013B01480134
:100300005901FC01EB59FF4F408351836283738392
:10031000349600831183228333833496C082D18242
:10032000E282F38220E030E0A901C301B2010E9421
:100330008F3487FD89C020E030E0A901C501B401F8
:100340000E948F3487FD80C020E030E0A901C70102
:10035000B6010E948F3487FD77C081E0ED81FE8178
:10036000228D338D2130310509F080E0ED81FE8151
:1003700083AF408251826282738284829582A68298
:10038000B782C086D186E286F38666A577A580A966
:1003900091A90E94933420E030E04AE754E40E949F
:1003A0002F3669837A838B839C83ED81FE8144861B
:1003B0005586668677869B01AC01C501B4010E9413
:1003C000F4344B015C01ED81FE81608B718B828B7B
:1003D000938B29813A814B815C81C701B6010E94D0
:1003E0002F366B017C01ED81FE81648B758B868BD2
:1003F000978B808D918D019739F5A301920160E073
:1004000070E0CB010E94CA35ED81FE81648775875B
:1004100086879787A501940160E070E0CB010E9478
:10042000CA35ED81FE81608B718B828B938BA70126
:10043000960160E070E0CB010E94CA35ED81FE813B
:10044000648B758B868B978B26960FB6F894DEBFE0
:100450000FBECDBFDF91CF911F910F91FF90EF9015
:10046000DF90CF90BF90AF909F908F907F906F90D4
:100470005F904F9008952F923F924F925F926F92AC
:100480007F928F929F92AF92BF92CF92DF92EF9224
:10049000FF920F931F93CF93DF9300D01F92CDB79E
:1004A000DEB71C01FC01E358FF4F808191012F5AF8
:1004B0003F4F3C832B83882309F463C00E946B1455
:1004C0006B017C01EB81FC8180809180A280B380F4
:1004D000F101EB5AFF4F2DEC3CEC4CE45DE3608105
:1004E0007181828193810E94F4342B013C0181014E
:1004F000075A1F4F20E030E040EB51E4C501B40142
:100500000E94CA35F80120813181428153810E94C5
:10051000F4349B01AC01C301B2010E94CA35F10160
:10052000E35AFF4F20813181428153810E942F364F
:100530002B013C01F1E62F0E311CF10180819181EC
:10054000B601681B790B072E000C880B990B0E94D3
:1005500095349B01AC01C301B2010E94F434A501A2
:1005600094010E94CB35EB81FC816083718382838F
:1005700093830E946B14F101608371838283938360
:1005800046C08101045C1F4FC8010E94111761E041
:10059000C8010E94FF1619821A8222E0AE014F5F45
:1005A0005F4F61E0C8010E94861B69817A817627CE
:1005B000672776277695679580E090E00E949334D0
:1005C00020E030E040E058E30E94F434F101E758C5
:1005D000FF4F20813181428153810E94F434F10127
:1005E000EF58FF4F20813181428153810E94F434C2
:1005F000F101EB58FF4F20813181428153810E94EC
:10060000CB35EB81FC816083718382839383EB81A3
:10061000FC8160817181828193810F900F900F9096
:100620000F90DF91CF911F910F91FF90EF90DF908E
:10063000CF90BF90AF909F908F907F906F905F9082
:100640004F903F902F9008950E946B140E94933416
:1006500020E030E04AE754E40C942F3608951F93CD
:10066000CF93DF93EC010E94C117182FCE010196A2
:100670000E94C11790E0982F8827810F911DDF916C
:10068000CF911F9108950F931F93CF93DF938C0108
:10069000EB01CB01E4DF8017910759F0602FCE0109
:1006A0000E94031A612FCE0101960E94031A81E075
:1006B00001C080E0DF91CF911F910F910895FC015F
:1006C00012AEEB5AFF4F1082118212821382B8963B
:1006D0002081211108C0FA9740E050E06081805CE1
:1006E0009F4F0C94CA1908952F923F924F925F9298
:1006F0006F927F928F929F92AF92BF92CF92DF9232
:10070000EF92FF920F931F93CF93DF93CDB7DEB796
:100710002F970FB6F894DEBF0FBECDBF9F878E8791
:10072000DC01DA968C91DA9781113DC05E96ED91ED
:10073000FC915F97C080D180E280F380FD01C6A26A
:10074000D7A2E0A6F1A65C96ED91FC915D97808121
:100750009181A281B381EE85FF8582A793A7A4A78B
:10076000B5A786A897A8A0ACB1ACA5019401C70114
:10077000B6010E941B37181674F0EE85FF8582A81B
:1007800093A8A4A8B5A8A5019401C701B6010E9429
:100790008F3487FF08C0AE85BF8596968D929D9257
:1007A000AD92BC92999781E0EE85FF8582AFCF0133
:1007B00062DEAE85BF85DA968C91882309F42AC162
:1007C0000E946B146D837E838F839887EE85FF85EF
:1007D00082A193A1A4A1B5A14D815E816F8178858D
:1007E000481B590B6A0B7B0B86A597A5A0A9B1A93D
:1007F000481759076A077B0708F40CC1048CF58D6C
:10080000E02D80819181A281B38189839A83AB831A
:10081000BC83AE85BF859096ED91FC91919729811F
:100820003A814B815C8160817181828193810E94D8
:10083000CA354B015C01EE85FF8522A533A544A591
:1008400055A569817A818B819C810E94CA356B0193
:100850007C01AE85BF8550962D913D914D915C9167
:100860005397C501B4010E94F434EE85FF8526A19B
:1008700037A140A551A50E94CB352B013C01AE8587
:10088000BF8596966D937D938D939C939997DB96F8
:10089000BC91B987B11118C0EE85FF8524853585D7
:1008A00046855785C701B6010E94F4349B01AC010F
:1008B000C301B2010E94CA35AE85BF8596966D937D
:1008C0007D938D939C939997EE85FF8546A057A0C5
:1008D00060A471A416A907A930AC21AC212F302F38
:1008E000432D522DC301B2010E941B3718162CF460
:1008F000812F902FA32DB22D18C0AE85BF85D29623
:100900008D919D910D90BC91A02D8A879B87AC877E
:10091000BD879C01AD01C301B2010E948F3487FFE6
:100920000AC08A859B85AC85BD85EE85FF8586A33B
:1009300097A3A0A7B1A7F985FF2379F0AE85BF855E
:100940001C962D913D914D915C911F97C501B4016D
:100950000E94F4344B015C0103C0812C912C5401A2
:10096000EE85FF852489358946895789C701B601F7
:100970000E94F4349B01AC01AE85BF8596966D91C3
:100980007D918D919C9199970E94CA35A501940102
:100990000E94CB356B017C019B01AC01612F702F54
:1009A000832D922D0E948F3487FD14C0EE85FF8524
:1009B00012A903A934A825A8212F302F432D522D89
:1009C000B601C7010E948F3487FD04C01C2D0D2D78
:1009D0003E2C2F2CAE85BF855E96ED91FC915F97E6
:1009E000812F902FA32DB22D80839183A283B38377
:1009F00089819A81AB81BC81EE85FF8582A793A70F
:100A0000A4A7B5A78D819E81AF81B88582A393A34A
:100A1000A4A3B5A3EE85FF85E358FF4F8081811124
:100A20002EC0EE85FF85EB5AFF4F60817181828178
:100A300093810E949C36EE85FF85ED5BFF4FAB01F5
:100A400060818E859F85805C9F4F2F960FB6F894AE
:100A5000DEBF0FBECDBFDF91CF911F910F91FF90F1
:100A6000EF90DF90CF90BF90AF909F908F907F904E
:100A70006F905F904F903F902F900C94CA192F96D3
:100A80000FB6F894DEBF0FBECDBFDF91CF911F919F
:100A90000F91FF90EF90DF90CF90BF90AF909F901D
:100AA0008F907F906F905F904F903F902F90089520
:100AB0008F929F92AF92BF92CF92DF92EF92FF926E
:100AC000CF93DF93EC016A017B01FC01E35BFF4FF5
:100AD00080809180A280B3809A01AB01C501B401EE
:100AE0000E948F34C258DF4F87FF05C088829982E9
:100AF000AA82BB8212C020E030E0A901C701B60182
:100B00000E948F3487FF05C0188219821A821B82C7
:100B100004C0C882D982EA82FB82DF91CF91FF9024
:100B2000EF90DF90CF90BF90AF909F908F900895FF
:100B30008F929F92AF92BF92CF92DF92EF92FF92ED
:100B40000F931F93CF93DF938EE692E09093A90AC1
:100B50008093A80A81E68093BA0A8091620A843061
:100B600028F480915D0A90915E0A04C080915F0A2A
:100B70009091600ADC01ED91FC910084F185E02DFB
:100B80001995882309F43CC19091A70A891791F01F
:100B90008093A70A0E946B14DC01CB010596A11D6E
:100BA000B11D8093B20A9093B30AA093B40AB09394
:100BB000B50A26C10E946B140091B20A1091B30AC3
:100BC0002091B40A3091B50A601771078207930724
:100BD00008F416C11092A70A8091630A823050F07F
:100BE000809105018F7B80930501809105018F7DA8
:100BF000809305011092A60A8091620A10E0843069
:100C000008F041C080915D0A90915E0ADC01ED918F
:100C1000FC910084F185E02D1995892B09F440C0E1
:100C2000C091A60AD0E080915D0A90915E0ADC0135
:100C3000ED91FC910284F385E02D1995C35AD54FAF
:100C400089878091A60A8F5F8093A60A8034D0F2AC
:100C500011E0D8CFC091A60AD0E080915F0A9091B0
:100C6000600ADC01ED91FC910284F385E02D199579
:100C7000C35AD54F89878091A60A8F5F8093A60AB1
:100C8000803408F011E080915F0A9091600ADC01E5
:100C9000ED91FC910084F185E02D1995892BD1F619
:100CA0008091AA0A9091AB0A01969093AB0A809327
:100CB000AA0A112359F08091AE0A9091AF0A0196C9
:100CC0009093AF0A8093AE0A8DEF02C08091A60A7E
:100CD0008093650A87300CF493C09091660A8091E6
:100CE000610A98138DC08091A60AC82FD0E0825067
:100CF0000E948A1AFE01E35AF54F278130E0322F15
:100D000022274085242B2817390759F08091AE0AF5
:100D10009091AF0A01969093AF0A8093AE0ACFEFFD
:100D200036C04091670AECE0F2E084E192E0219164
:100D3000241709F4EAC78E179F07C9F78091AE0AF6
:100D40009091AF0A01969093AF0A8093AE0AC1E0EA
:100D500013C08091680A9091690A9827892798277B
:100D6000D4E096958795DA95E1F79091BA0A9817AD
:100D700010F00C94C40EC2E080E8840F8093670AE0
:100D8000C093680A83E08093A60A0E94A61AC093C3
:100D9000650A36C02091680A3091690A32272327F4
:100DA000322740916A0A50916B0A542745275427ED
:100DB000FA01C3E0F695E795CA95E1F78E2FBA01DF
:100DC000677077276115710511F081E08E0F8093B0
:100DD000680A83E08093A60A420F531F90E0812C9B
:100DE000912C540183944217530709F0F2C7809362
:100DF000A60A672B19F08F5F8093A60A0E94A61A95
:100E000023DC2091400330914103409142035091F3
:100E100043030E94CA352091080230910902409193
:100E20000A0250910B020E941B3787FFBCC36091DE
:100E300086027091870280E090E00E94933420E067
:100E400030E048EC52E40E942F366B017C01609147
:100E500084027091850280E090E00E94933420E04B
:100E600030E048EC52E40E942F364B015C01609167
:100E700082027091830280E090E00E94933420E02F
:100E800030E048EC52E40E942F36AB01BC019501E2
:100E9000840188ED99E01BDA6091880270918902E3
:100EA00080E090E00E94933420E030E44CE156E48E
:100EB0000E942F366093490A70934A0A80934B0A26
:100EC00090934C0A60918A0270918B0280E090E0CE
:100ED0000E94933420E030E048EC52E40E942F3628
:100EE00060934D0A70934E0A80934F0A9093500A74
:100EF00060918C0270918D0280E090E00E949334AA
:100F00006093510A7093520A8093530A9093540A43
:100F100060911A0370911B0380E090E00E9493346B
:100F200020E030E040E251E40E942F366093250A31
:100F30007093260A8093270A9093280A6091920260
:100F40007091930280E090E00E94933420E030E0C2
:100F500048EC52E40E942F366B017C0160919002B4
:100F60007091910280E090E00E94933420E030E0A4
:100F700048EC52E40E942F364B015C0160918E02D6
:100F800070918F0280E090E00E94933420E030E086
:100F900048EC52E40E942F36AB01BC01950184015C
:100FA00086E599E094D9609194027091950280E071
:100FB00090E00E94933420E030E44CE156E40E943B
:100FC0002F366093C7097093C8098093C90990931D
:100FD000CA09609196027091970280E090E00E94A9
:100FE000933420E030E048EC52E40E942F366093C6
:100FF000CB097093CC098093CD099093CE09609171
:1010000098027091990280E090E00E94933460937E
:10101000CF097093D0098093D1099093D209609140
:101020001A0370911B0380E090E00E94933420E04B
:1010300030E040E251E40E942F366093A3097093A0
:10104000A4098093A5099093A60960919E027091CE
:101050009F0280E090E00E94933420E030E048EC72
:1010600052E40E942F366B017C0160919C027091CA
:101070009D0280E090E00E94933420E030E048EC54
:1010800052E40E942F364B015C0160919A027091EC
:101090009B0280E090E00E94933420E030E048EC36
:1010A00052E40E942F36AB01BC019501840184ED0E
:1010B00098E00DD96091A0027091A10280E090E0CB
:1010C0000E94933420E030E44CE156E40E942F3635
:1010D00060934509709346098093470990934809A6
:1010E0006091A2027091A30280E090E00E9493348C
:1010F00020E030E048EC52E40E942F36609349092A
:1011000070934A0980934B0990934C096091A40213
:101110007091A50280E090E00E94933460934D09A5
:1011200070934E0980934F099093500960911A0370
:1011300070911B0380E090E00E94933420E030E047
:1011400040E251E40E942F366093210970932209F6
:1011500080932309909324096091AA027091AB02B5
:1011600080E090E00E94933420E030E048EC52E4CC
:101170000E942F366B017C016091A8027091A90238
:1011800080E090E00E94933420E030E048EC52E4AC
:101190000E942F364B015C016091A6027091A7025C
:1011A00080E090E00E94933420E030E048EC52E48C
:1011B0000E942F36AB01BC019501840182E598E0C5
:1011C00086D86091AC027091AD0280E090E00E9400
:1011D000933420E030E44CE156E40E942F366093D3
:1011E000C3087093C4088093C5089093C6086091A3
:1011F000AE027091AF0280E090E00E94933420E054
:1012000030E048EC52E40E942F366093C708709398
:10121000C8088093C9089093CA086091B002709181
:10122000B10280E090E00E9493346093CB08709309
:10123000CC088093CD089093CE0860911A037091EA
:101240001B0380E090E00E94933420E030E040E215
:1012500051E40E942F3660939F087093A0088093FA
:10126000A1089093A2086091B6027091B70280E045
:1012700090E00E94933420E030E048EC52E40E9479
:101280002F366B017C016091B4027091B50280E051
:1012900090E00E94933420E030E048EC52E40E9459
:1012A0002F364B015C016091B2027091B30280E075
:1012B00090E00E94933420E030E048EC52E40E9439
:1012C0002F36AB01BC019501840180ED97E00E94AF
:1012D00067016091B8027091B90280E090E00E94CD
:1012E000933420E030E44CE156E40E942F366093C2
:1012F000410870934208809343089093440860919A
:10130000BA027091BB0280E090E00E94933420E02A
:1013100030E048EC52E40E942F3660934508709309
:10132000460880934708909348086091BC027091EA
:10133000BD0280E090E00E9493346093490870936E
:101340004A0880934B0890934C0860911A0370915F
:101350001B0380E090E00E94933420E030E040E204
:1013600051E40E942F3660931D0870931E088093ED
:101370001F08909320086091C2027091C30280E020
:1013800090E00E94933420E030E048EC52E40E9468
:101390002F366B017C016091C0027091C10280E028
:1013A00090E00E94933420E030E048EC52E40E9448
:1013B0002F364B015C016091BE027091BF0280E04C
:1013C00090E00E94933420E030E048EC52E40E9428
:1013D0002F36AB01BC01950184018EE497E00E9499
:1013E00067016091C4027091C50280E090E00E94A4
:1013F000933420E030E44CE156E40E942F366093B1
:10140000BF077093C0078093C1079093C207609194
:10141000C6027091C70280E090E00E94933420E001
:1014200030E048EC52E40E942F366093C30770937B
:10143000C4078093C5079093C6076091C802709156
:10144000C90280E090E00E9493346093C7077093D4
:10145000C8078093C9079093CA0760911A037091D7
:101460001B0380E090E00E94933420E030E040E2F3
:1014700051E40E942F3660939B0770939C078093E2
:101480009D0790939E076091CE027091CF0280E0FD
:1014900090E00E94933420E030E048EC52E40E9457
:1014A0002F366B017C016091CC027091CD0280E0FF
:1014B00090E00E94933420E030E048EC52E40E9437
:1014C0002F364B015C016091CA027091CB0280E023
:1014D00090E00E94933420E030E048EC52E40E9417
:1014E0002F36AB01BC01950184018CEC96E00E9483
:1014F00067016091D0027091D10280E090E00E947B
:10150000933420E030E44CE156E40E942F3660939F
:101510003D0770933E0780933F079093400760918B
:10152000D2027091D30280E090E00E94933420E0D8
:1015300030E048EC52E40E942F36609341077093EC
:10154000420780934307909344076091D4027091BF
:10155000D50280E090E00E94933460934507709339
:101560004607809347079093480760911A0370914C
:101570001B0380E090E00E94933420E030E040E2E2
:1015800051E40E942F366093190770931A078093D5
:101590001B0790931C078091EE029091EF02019738
:1015A00009F0B4C0CBC050D860934003709341039E
:1015B00080934203909343038091EE029091EF0257
:1015C000019709F434CC02E812E0C8EED3E05E01E2
:1015D000B8E1AB0EB11C68017E01B701D6018D9157
:1015E0009D916D0150D8B4E0EB0EF11CAE14BF0418
:1015F000A1F7C851DC4F045F1F4FC034EFE1DE0795
:1016000031F70EE612E0C0E0D0E0BE01F8018191B2
:1016100091918F0138D82496C431D105B1F708E7EC
:1016200012E0BE01D8018D919D918D012CD8249698
:10163000C832D105B1F768E270E08091D60290918E
:10164000D70221D86CE270E08091D8029091D90243
:101650001AD860E370E08091DA029091DB0213D82F
:1016600064E370E08091DC029091DD020CD868E3C5
:1016700070E08091DE029091DF0205D86CE370E0AB
:101680008091E0029091E1020E94430360E470E0E7
:101690008091E2029091E3020E94430364E470E0CF
:1016A0008091E4029091E5020E94430368E470E0B7
:1016B0008091E6029091E7020E9443036CE470E09F
:1016C00080911603909117030E94430360E570E038
:1016D00080911803909119030E94430364E570E020
:1016E00080911A0390911B030E9443030CE113E0C5
:1016F000C8E5D0E0BE01F801819191918F010E946F
:1017000043032496CC36D105A9F791CB88ED99E017
:101710000E943B0286E599E00E943B0284ED98E03E
:101720000E943B0282E598E00E943B0280ED97E038
:101730000E943B028EE497E00E943B02C090290A7F
:10174000D0902A0AE0902B0AF0902C0AC701B6012B
:101750000E949C3680E090E00E94933420E030E0CC
:1017600040E251E40E94F4340E949C367093F502EA
:101770006093F4026091A7097091A8098091A9096A
:101780009091AA090E949C3680E090E00E949334D8
:1017900020E030E040E251E40E94F4340E949C36A4
:1017A0007093F7026093F602609125097091260903
:1017B00080912709909128090E949C3680E090E052
:1017C0000E94933420E030E040E251E40E94F4347F
:1017D0000E949C367093F9026093F8026091A3080E
:1017E0007091A4088091A5089091A6080E949C364B
:1017F00080E090E00E94933420E030E040E251E449
:101800000E94F4340E949C367093FB026093FA02AB
:1018100060912108709122088091230890912408FA
:101820000E949C3680E090E00E94933420E030E0FB
:1018300040E251E40E94F4340E949C367093FD0211
:101840006093FC0260919F077091A0078091A107AF
:101850009091A2070E949C3680E090E00E94933411
:1018600020E030E040E251E40E94F4340E949C36D3
:101870007093FF026093FE0260911D0770911E0736
:1018800080911F07909120070E949C3680E090E095
:101890000E94933420E030E040E251E40E94F434AE
:1018A0000E949C367093010360930003C701B60148
:1018B0000E94FC186EE572E08BED95E00E94C9195C
:1018C0006091A7097091A8098091A9099091AA092E
:1018D0000E94FC186EE572E08BED95E00E94C9193C
:1018E0006091250970912609809127099091280916
:1018F0000E94FC186EE572E08BED95E00E94C9191C
:101900006091A3087091A4088091A5089091A60801
:101910000E94FC186EE572E08BED95E00E94C919FB
:1019200060912108709122088091230890912408E9
:101930000E94FC186EE572E08BED95E00E94C919DB
:1019400060919F077091A0078091A1079091A207D5
:101950000E94FC186EE572E08BED95E00E94C919BB
:1019600060911D0770911E0780911F0790912007BD
:101970000E94FC1867E472E08BED95E00E949F18CE
:101980002091210A3091220A4091230A5091240A81
:1019900060912D0A70912E0A80912F0A9091300A41
:1019A0000E942F3620E030E048EC52E40E94F434EC
:1019B0000E949C3680E090E00E94933420E030E06A
:1019C00040E251E40E94F4340E949C367093030379
:1019D0006093020320919F093091A0094091A109D1
:1019E0005091A2096091AB097091AC098091AD0949
:1019F0009091AE090E942F3620E030E048EC52E48E
:101A00000E94F4340E949C3680E090E00E9493345F
:101A100020E030E040E251E40E94F4340E949C3621
:101A2000709305036093040320911D0930911E09F2
:101A300040911F09509120096091290970912A094C
:101A400080912B0990912C090E942F3620E030E0E4
:101A500048EC52E40E94F4340E949C3680E090E00E
:101A60000E94933420E030E040E251E40E94F434DC
:101A70000E949C36709307036093060320919B0895
:101A800030919C0840919D0850919E086091A70854
:101A90007091A8088091A9089091AA080E942F36F9
:101AA00020E030E048EC52E40E94F4340E949C367E
:101AB00080E090E00E94933420E030E040E251E486
:101AC0000E94F4340E949C367093090360930803CB
:101AD0002091190830911A0840911B0850911C0858
:101AE0006091250870912608809127089091280818
:101AF0000E942F3620E030E048EC52E40E94F4349B
:101B00000E949C3680E090E00E94933420E030E018
:101B100040E251E40E94F4340E949C3670930B031F
:101B200060930A0320919707309198074091990795
:101B300050919A076091A3077091A4078091A5071F
:101B40009091A6070E942F3620E030E048EC52E446
:101B50000E94F4340E949C3680E090E00E9493340E
:101B600020E030E040E251E40E94F4340E949C36D0
:101B700070930D0360930C032091150730911607A5
:101B80004091170750911807609121077091220723
:101B900080912307909124070E942F3620E030E0A7
:101BA00048EC52E40E94F4340E949C3680E090E0BD
:101BB0000E94933420E030E040E251E40E94F4348B
:101BC0000E949C3670930F0360930E038091EE0287
:101BD0009091EF02019709F433C26091DC02709199
:101BE000DD0280E090E00E94933420E030E040E2AB
:101BF00051E40E942F36AB01BC0182E598E00E94BF
:101C000058056091DE027091DF0280E090E00E9452
:101C1000933420E030E040E251E40E942F36AB01E3
:101C2000BC0180ED97E00E9458056091DA02709146
:101C3000DB0280E090E00E94933420E030E040E25C
:101C400051E40E942F36AB01BC0184ED98E00E9464
:101C500058056091D6027091D70280E090E00E9412
:101C6000933420E030E040E251E40E942F36AB0193
:101C7000BC0188ED99E00E9458056091D8027091EE
:101C8000D90280E090E00E94933420E030E040E20E
:101C900051E40E942F36AB01BC0186E599E00E9419
:101CA00058056091E0027091E10280E090E00E94AE
:101CB000933420E030E040E251E40E942F36AB0143
:101CC000BC018EE497E00E9458056091E202709199
:101CD000E30280E090E00E94933420E030E040E2B4
:101CE00051E40E942F36AB01BC018CEC96E0DF91F1
:101CF000CF911F910F91FF90EF90DF90CF90BF9009
:101D0000AF909F908F900C945805842F90E0FC0129
:101D10003197E031F105C0F58827EE58FF4F8F4F1E
:101D20000C9423378091680A9091690A9827892733
:101D300098279C0114E0369527951A95E1F7809134
:101D40006A0A90916B0A98278927982704E096954C
:101D500087950A95E1F714C08091680A9091690A05
:101D60009827892702C880916A0A90916B0A382FB8
:101D7000292F8091680A9091690A982789279827C6
:101D8000820F931F0C94B506A6D52091B00A30910E
:101D9000B10ADC01CB01820F931FA11DB11D8093FD
:101DA000B60A9093B70AA093B80AB093B90A1092F2
:101DB000650AE091670A8E2F90E0FC013197E031CF
:101DC000F10508F01DC88827EE57FF4F8F4F0C9480
:101DD0002337F901A3E0F695E795AA95E1F7EE7FA1
:101DE000F170E259FD4FA081B181E22FEF7002C086
:101DF000B695A795EA95E2F7E82FF0E0E35AF54F9C
:101E0000A0FF0EC0A18575016401092E04C0CC0C91
:101E1000DD1CEE1CFF1C0A94D2F7CA2AC1860FC033
:101E200075016401092E04C0CC0CDD1CEE1CFF1CE6
:101E30000A94D2F7AC2DA095B185AB23A1879F5F03
:101E4000983010F08F5F90E02F5F3F4F0C94F306B7
:101E50002091680A3091690A32272327322F809116
:101E60006A0A90916B0A982789279827482F440F70
:101E70004093680AE3E09927820F911D22E02E0F1C
:101E8000A32FB0E0A817B90724F0E093A60A0C949A
:101E9000FE06AA0FBB1FA259BD4F4C9111965C9133
:101EA000AE2FB0E0A35AB54F19965C93EF5FF0E008
:101EB000E35AF54F41873F5FE22FE0CF8091680AF8
:101EC0009091690A982789279827FC0114E0F695D4
:101ED000E7951A95E1F7282F2F7080916A0AFF275E
:101EE000EE0FFF1FE259FD4F8F3F81F481E090E03C
:101EF000A0E0B0E004C0880F991FAA1FBB1F2A955D
:101F0000D2F720813181822B932B11C081E090E0A8
:101F1000A0E0B0E004C0880F991FAA1FBB1F2A953C
:101F2000D2F78095909520813181822393239183EC
:101F3000808386E00C94FC06E091690AF0E0EE0FE5
:101F4000FF1FE259FD4F80916A0A90916B0A982712
:101F500089279827ECCF8091680A9091690A982781
:101F60008927982740916A0A50916B0A5427452780
:101F70005427480F591F20E037E0812C912C540141
:101F8000839484179507A9F2A82FAF70E32FF0E090
:101F9000E35AF54F618570E0022E02C07595679592
:101FA0000A94E2F7FC0174E0F695E7957A95E1F77B
:101FB000FF27EE0FFF1FE259FD4F7501640104C0BA
:101FC000CC0CDD1CEE1CFF1CAA95D2F760FF05C0EF
:101FD00060817181C62AD72A06C0C094D0946081DE
:101FE0007181C622D722D182C0822F5F283010F0A3
:101FF0003F5F20E00196C5CFE091690A40916B0AEE
:1020000010926A0A86E08093A60AADE5BAE0F0E095
:10201000EE0FFF1FE259FD4F20E01296421711F418
:102020000C94FE061E968C911E9790E0982F8827A0
:102030001F963C911F97832B819391932F5FEDCF38
:10204000DF91CF911F910F91FF90EF90DF90CF9094
:10205000BF90AF909F908F900895FC01538D448D59
:10206000252F30E0842F90E0821B930B541710F043
:10207000CF96089501970895FC01918D828D981750
:1020800061F0828DDF01A80FB11D5D968C91928D5C
:102090009F5F9F73928F90E008958FEF9FEF089559
:1020A000FC01918D828D981731F0828DE80FF11D22
:1020B000858D90E008958FEF9FEF0895FC01918D3D
:1020C000228D892F90E0805C9F4F821B91098F7336
:1020D0009927089584E094E0F1DF21E0892B09F449
:1020E00020E0822F089581EA94E0E8DF21E0892B47
:1020F00009F420E0822F08958EE395E0DFDF21E0F0
:10210000892B09F420E0822F08958BED95E0D6DF2E
:1021100021E0892B09F420E0822F0895FC01848DB1
:10212000DF01A80FB11DA35ABF4F2C91848D90E001
:1021300001968F739927848FA689B7892C93A089DC
:10214000B1898C91837080648C93938D848D981366
:1021500006C00288F389E02D80818F7D80830895F9
:10216000EF92FF920F931F93CF93DF93EC0181E0E7
:10217000888F9B8D8C8D981305C0E889F9898081A3
:1021800085FD25C0F62E0B8D10E00F5F1F4F0F73DE
:102190001127E02E8C8DE8120BC00FB607FCFACF8A
:1021A000E889F989808185FFF5CFCE01B7DFF2CFCD
:1021B0008B8DFE01E80FF11DE35AFF4FF0829FB7B0
:1021C000F8940B8FEA89FB89808180620AC09FB7EF
:1021D000F894EE89FF896083E889F98980818370AA
:1021E000806480839FBF81E090E0DF91CF911F9159
:1021F0000F91FF90EF900895CF93DF93EC01888DBE
:102200008823C1F0EA89FB89808185FD05C0A88902
:10221000B9898C9186FD0EC00FB607FCF5CF808181
:1022200085FFF2CFA889B9898C9185FFEDCFCE01CA
:1022300075DFE8CFDF91CF91089580E090E0892BA2
:1022400019F063DF811116C080E090E0892B19F04E
:1022500053DF811112C080E090E0892B19F043DF39
:1022600081110EC080E090E0892B79F033DF81117D
:102270000AC008950E940000E7CF0E940000EBCF43
:102280000E940000EFCF0C940000089590E0FC0144
:102290003197E231F10508F04EC08827EE56FF4F26
:1022A0008F4F0C942337809180008F7703C08091EB
:1022B00080008F7D80938000089580918000877FCB
:1022C000F9CF84B58F7702C084B58F7D84BD089522
:1022D0008091B0008F7703C08091B0008F7D809394
:1022E000B0000895809190008F7707C08091900092
:1022F0008F7D03C080919000877F80939000089528
:102300008091A0008F7707C08091A0008F7D03C0CF
:102310008091A000877F8093A00008958091200184
:102320008F7707C0809120018F7D03C080912001AD
:10233000877F8093200108953FB7F8948091B2037E
:102340009091B303A091B403B091B50326B5A89BB7
:1023500005C02F3F19F00196A11DB11D3FBFBA2F37
:10236000A92F982F8827820F911DA11DB11DBC0197
:10237000CD0142E0660F771F881F991F4A95D1F75C
:10238000089585ED8093BC008091BC0084FDFCCF56
:102390001092FE03089540918803262F30E0240F09
:1023A000311D21323105DCF42091FE032430C9F4C3
:1023B000FC0180E090E0861758F430918803219169
:1023C000DC01AA59BC4FA30FB11D2C930196F3CF8A
:1023D00080918803680F6093880380E0089581E00E
:1023E000089582E00895089508950895E091B7034F
:1023F0008091B603E81730F4F0E0E854FC4F808198
:1024000090E008958FEF9FEF08959091B70380912A
:10241000B603981750F4E92FF0E0E854FC4F208100
:1024200030E09F5F9093B70302C02FEF3FEFC901E9
:1024300008958091B60390E02091B703821B910923
:102440000895CF92DF92EF92FF920F931F93CF9355
:10245000DF937C01CB018A0120910304222389F0C0
:10246000EB016B01C40ED51ECC15DD0561F0699141
:10247000D701ED91FC910190F081E02DC7011995F4
:10248000F3CF642F88DFC801DF91CF911F910F91A7
:10249000FF90EF90DF90CF900895CF93DF931F923E
:1024A000CDB7DEB76983209103042223D1F02091B8
:1024B0000004203240F021E030E0FC01338322832D
:1024C00080E090E014C080910104E82FF0E0EA5B26
:1024D000FC4F998190838F5F809301048093000467
:1024E00004C061E0CE01019656DF81E090E00F90DC
:1024F000DF91CF910895089580E090E008950E94C3
:102500002B371F920F920FB60F9211240BB60F921A
:102510002F933F934F935F936F937F938F939F93EB
:10252000AF93BF93EF93FF9384E094E0F7DDFF91C7
:10253000EF91BF91AF919F918F917F916F915F913B
:102540004F913F912F910F900BBE0F900FBE0F90A8
:102550001F9018951F920F920FB60F9211240BB671
:102560000F922F933F934F935F936F937F938F932C
:102570009F93AF93BF93EF93FF9384E094E0C6D50E
:10258000FF91EF91BF91AF919F918F917F916F914B
:102590005F914F913F912F910F900BBE0F900FBE07
:1025A0000F901F9018951F920F920FB60F92112443
:1025B0000BB60F922F933F934F935F936F937F933D
:1025C0008F939F93AF93BF93EF93FF9381EA94E030
:1025D000A5DDFF91EF91BF91AF919F918F917F9179
:1025E0006F915F914F913F912F910F900BBE0F9084
:1025F0000FBE0F901F9018951F920F920FB60F925B
:1026000011240BB60F922F933F934F935F936F93C9
:102610007F938F939F93AF93BF93EF93FF9381EA41
:1026200094E074D5FF91EF91BF91AF919F918F91FD
:102630007F916F915F914F913F912F910F900BBEC2
:102640000F900FBE0F901F9018951F920F920FB60C
:102650000F9211240BB60F922F933F934F935F93DA
:102660006F937F938F939F93AF93BF93EF93FF935A
:102670008EE395E053DDFF91EF91BF91AF919F9174
:102680008F917F916F915F914F913F912F910F901B
:102690000BBE0F900FBE0F901F9018951F920F92B8
:1026A0000FB60F9211240BB60F922F933F934F93B7
:1026B0005F936F937F938F939F93AF93BF93EF93AA
:1026C000FF938EE395E022D5FF91EF91BF91AF91FB
:1026D0009F918F917F916F915F914F913F912F913A
:1026E0000F900BBE0F900FBE0F901F9018951F926A
:1026F0000F920FB60F9211240BB60F922F933F93A8
:102700004F935F936F937F938F939F93AF93BF93F9
:10271000EF93FF938BED95E001DDFF91EF91BF917A
:10272000AF919F918F917F916F915F914F913F9169
:102730002F910F900BBE0F900FBE0F901F9018950A
:102740001F920F920FB60F9211240BB60F922F9378
:102750003F934F935F936F937F938F939F93AF9329
:10276000BF93EF93FF938BED95E0D0D4FF91EF9162
:10277000BF91AF919F918F917F916F915F914F9199
:102780003F912F910F900BBE0F900FBE0F901F9097
:1027900018951F93CF93DF93282F30E0F901E45869
:1027A000FE4F8491F901E452FE4FD491F901EE5DA0
:1027B000FD4FC491CC23B9F0162F811167DDEC2FAA
:1027C000F0E0EE0FFF1FEE59FE4FA591B4919FB7B9
:1027D000F894111104C08C91D095D82302C0EC91CB
:1027E000DE2BDC939FBFDF91CF911F910895CF9394
:1027F000DF9390E0FC01E452FE4F2491FC01EE5D7A
:10280000FD4F8491882361F190E0880F991FFC01AE
:10281000EE53FE4FC591D491FC01EE59FE4FA591A8
:10282000B491611109C09FB7F894888120958223E3
:102830008883EC912E230BC0623061F49FB7F8942B
:102840008881322F309583238883EC912E2B2C9313
:102850009FBF06C08FB7F894E8812E2B28838FBFC7
:10286000DF91CF9108958F929F92AF92BF92CF92B6
:10287000DF92EF92FF926B017C015EDD4B015C0108
:10288000C114D104E104F104E9F056DDDC01CB010F
:1028900088199909AA09BB09883E9340A105B10589
:1028A00078F321E0C21AD108E108F10888EE880E19
:1028B00083E0981EA11CB11CC114D104E104F104F1
:1028C00021F7DECFFF90EF90DF90CF90BF90AF90D9
:1028D0009F908F9008952FB7F8946091AE037091F8
:1028E000AF038091B0039091B1032FBF08951F9261
:1028F0000F920FB60F9211242F933F938F939F93B4
:10290000AF93BF938091AE039091AF03A091B003BA
:10291000B091B1033091AD0323E0230F2D3720F4A4
:102920000196A11DB11D05C026E8230F0296A11D29
:10293000B11D2093AD038093AE039093AF03A0939A
:10294000B003B093B1038091B2039091B303A0910F
:10295000B403B091B5030196A11DB11D8093B203DC
:102960009093B303A093B403B093B503BF91AF9119
:102970009F918F913F912F910F900FBE0F901F90BD
:1029800018951F920F920FB60F9211240BB60F924B
:102990002F933F934F935F936F937F938F939F9367
:1029A000AF93BF93EF93FF938091B900887F8036F8
:1029B00009F49CC068F5883209F45BC090F480315A
:1029C00009F454C038F4882309F4F6C0883009F4B7
:1029D0004DC0F5C0883109F44CC0803209F45DC0A7
:1029E000EEC0803409F468C048F4803309F455C05F
:1029F000883309F0E4C08093FC03D8C0803509F423
:102A00004FC0883509F45DC0883409F0D8C0D6C0FD
:102A1000883909F4C7C0A8F4883709F467C038F4C6
:102A2000883609F463C0803709F460C0C8C08838AC
:102A300009F4B8C0803909F45FC0803809F0BFC01C
:102A40005BC0803B09F486C038F4803A09F466C064
:102A5000883A09F47FC0B3C0803C09F4A7C0883C21
:102A600009F4A4C0883B09F48AC0A9C08091F90385
:102A700010C09091FB038091FA03981770F5E091D4
:102A8000FB0381E08E0F8093FB03F0E0E852FC4FE4
:102A900080818093BB0085EC86C08093FC038EC050
:102AA000E091FB0381E08E0F8093FB038091BB00DC
:102AB000F0E0E852FC4F80839091FB038091FA0391
:102AC0006EC0E091FB0381E08E0F8093FB03809149
:102AD000BB00F0E0E852FC4F80838091FD03811140
:102AE0006DC081E08093F80384EA61C083E0809345
:102AF000FE031092AC03CFCF8091AC03803208F07C
:102B000051C0E091AC0381E08E0F8093AC038091C3
:102B1000BB00F0E0E457FC4F8083BDCF85EC809391
:102B2000BC001092FE038091AC03803230F4E0913F
:102B3000AC03F0E0E457FC4F10826091AC0370E00E
:102B4000E0918A03F0918B038CE893E01995109241
:102B5000AC0335C084E08093FE0310928903109289
:102B60008803E0918603F09187031995809188038B
:102B7000811105C081E08093880310926603E09183
:102B8000890381E08E0F80938903F0E0EA59FC4FBE
:102B900080818093BB00909189038091880398176E
:102BA00008F479CF85E88093BC0009C085EC809358
:102BB000BC001092FE0303C01092FC03E2DBFF9105
:102BC000EF91BF91AF919F918F917F916F915F91A5
:102BD0004F913F912F910F900BBE0F900FBE0F9012
:102BE0001F90189530910004313208F04AC080914E
:102BF000FE038111FCCF9091020422E02093FE039A
:102C00006093FD032FEF2093FC031092FB0330939E
:102C1000FA03E6E4F3E0A8EDB3E020E0321721F098
:102C200041914D932F5FFACF1092F9032091F90350
:102C3000990F922B9093F9039091F803913061F4DE
:102C40001092F8039091F9039093BB009091BC000F
:102C500093FDF8CF95EC01C095EE9093BC00909158
:102C6000FE039230E1F39091FC039F3F79F0809155
:102C7000FC03803241F08091FC03803331F084E02A
:102C800005C081E003C082E001C083E0109201042E
:102C90001092000410920304089561E0A3CF1092F3
:102CA000B7031092B6031092010410920004109220
:102CB000FE0381E08093FD031092F80361E084E15C
:102CC00068DD61E085E165DDE9EBF0E080818E7F24
:102CD000808380818D7F808388E48093B80085E441
:102CE0008093BC0083EF91E19093870380938603E8
:102CF00084EF91E190938B0380938A030895DC0124
:102D0000ED91FC910190F081E02D19941F920F92AA
:102D10000FB60F9211240F900FBE0F901F901895B1
:102D2000AF92BF92CF92DF92EF92FF920F931F93D9
:102D3000CF93DF93FC0120812F3F39F46EBD00005B
:102D40000DB407FEFDCF8EB53FC0C62EEC0107E0E7
:102D500010E0D12CEE24E394F12CDD0C61E08881AD
:102D600018DDB701002E01C0660F0A94EAF76C2146
:102D70008A810FDD60E088810CDD298130E0F90176
:102D8000E458FE4F8491F901E452FE4FB490F901EA
:102D9000EE5DFD4FA490AA2069F0811177DAEA2D4B
:102DA000F0E0EE0FFF1FE85BFE4FA591B491EC91B0
:102DB000BE2231F40150110908F0CFCF8D2D04C08F
:102DC0008D2D8160D82EF6CFDF91CF911F910F917D
:102DD000FF90EF90DF90CF90BF90AF900895CF938A
:102DE000DF931F92CDB7DEB7198221E0AE014F5FAE
:102DF0005F4F8CD489810F90DF91CF9108951F93FD
:102E0000CF93DF93EC01162F60E0E9DF682F1123E9
:102E100011F0606401C06F7BCE01DF91CF911F91F3
:102E200052C4CF93DF93EC0160E0D9DF837D682F3C
:102E30006260CE01DF91CF9146C408958CBD9DBDE7
:102E400008951092EF021092EE0288ED99E00E9430
:102E50005F0386E599E00E945F0384ED98E00E949D
:102E60005F0382E598E00E945F0380ED97E00E9497
:102E70005F038EE497E00C945F0388ED99E00E9475
:102E8000740386E599E00E94740384ED98E00E9443
:102E9000740382E598E00E94740380ED97E00E943D
:102EA00074038EE497E00C947403CF92DF92EF9258
:102EB000FF920F931F93CF93DF936C017A018B01E5
:102EC000C0E0D0E0CE15DF0581F0D8016D918D0115
:102ED000D601ED91FC910190F081E02DC60119958C
:102EE000892B11F02196EECF7E01C701DF91CF91A2
:102EF0001F910F91FF90EF90DF90CF9008959091E8
:102F0000FE039111FCCF91E09093FE039093FD039B
:102F10002FEF2093FC031092FB03260F2093FA035C
:102F20009093F9039091F903880F892B8093F9030B
:102F30008091F803813061F41092F8038091F903D5
:102F40008093BB008091BC0083FDF8CF85EC01C06D
:102F500085EE8093BC008091FE038130E1F3809187
:102F6000FB03861710F46091FB03A8EDB3E0E8EBD8
:102F7000F3E080E0861721F09D9191938F5FFACF67
:102F800008950F931F93CF93DF93EC010BEB1AE09F
:102F9000F801808191E090930304809302041092E1
:102FA0000104109200046D2F70E080EC96E0A7DE23
:102FB000BE01772780EC96E0A2DE80EC96E06DDE25
:102FC00061E0F80180819BDF1092B7038093B60324
:102FD00080EC96E01ADADF91CF911F910F9108955E
:102FE0001F93CF93DF93162FCAE5DAE0988121E093
:102FF00020930304909302041092010410920004A1
:10300000A981BA81ED91FC9111970190F081E02D99
:10301000682FCD01199589819A81DC01ED91FC9190
:103020000190F081E02D612F199589819A81DF91BE
:10303000CF911F9132CECF92DF92EF92FF92CF933A
:10304000DF9326E636E646E65FE30E94F4349B0112
:10305000AC0160E27CEB8EEB95E40E942F3620E021
:1030600030E040E85FE30E94CA3520E030E040E015
:103070005FE30E94CB350E94C8366B017C01CAE534
:10308000DAE0888191E09093030480930204109227
:1030900001041092000489819A81DC01ED91FC9178
:1030A0000190F081E02D60E0199589819A81F5DD2C
:1030B00061E0888124DF1092B7038093B603898191
:1030C0009A81DC01ED91FC910284F385E02D199544
:1030D000C82F682F6F76606180E082DFC701B6017C
:1030E0000E949C368EEF7CDF6C2F80E079DF65E0FC
:1030F00070E080E090E0B7DB6C2F606A80E0DF91E9
:10310000CF91FF90EF90DF90CF906ACFFC01A08924
:10311000B1898C91A689B78982FD0FC09C91818D60
:103120008F5F8F73228D821749F0218DDF01A20FEF
:10313000B11D5D969C93818F08958C9108956115C2
:10314000710579F0FB0101900020E9F73197AF019B
:10315000461B570BDC01ED91FC910280F381E02DC1
:10316000199480E090E008958F929F92AF92BF9261
:10317000EF92FF920F931F93CF93DF93CDB7DEB7FC
:10318000A1970FB6F894DEBF0FBECDBF7C01FA0148
:10319000CB0119A2223008F42AE08E010F5D1F4FE7
:1031A000822E912CA12CB12CBF01A50194010E946B
:1031B000A835F901CA01015011096A3014F4605DA3
:1031C00001C0695CD8016C93232B242B252B61F75C
:1031D000B801C701B4DFA1960FB6F894DEBF0FBEE9
:1031E000CDBFDF91CF911F910F91FF90EF90BF90D6
:1031F000AF909F908F9008954F925F926F927F92C1
:103200008F929F92AF92BF92CF92DF92EF92FF92F6
:10321000CF936B017C019B01AC010E941F37882377
:1032200019F061E672E027C046015701E894B7F84B
:103230002FEF3FEF4FE75FE7C501B4010E941F3753
:1032400081110DC02FEF3FEF4FE75FE7C501B401DC
:103250000E948F3418161CF465E672E00CC02FEF44
:103260003FEF4FE75FE4C701B6010E941B37181616
:1032700094F469E672E08BED95E0CF91FF90EF90CA
:10328000DF90CF90BF90AF909F908F907F906F9086
:103290005F904F9054CF2FEF3FEF4FE75FECC701A8
:1032A000B6010E948F3487FDE4CF20E030E0A90111
:1032B000C701B6010E948F3487FF0BC06DE28BED12
:1032C00095E00E94B0105C01F7FAF094F7F8F094E2
:1032D00002C0A12CB12C2AE037ED43EA5BE3C70121
:1032E000B6010E94CB352B013C010E949C366B013C
:1032F0007C010E9493349B01AC01C301B2010E9486
:10330000CA352B013C012AE0B701A6018BED95E0FF
:103310002BDF7C01EA0CFB1C6EE28BED95E00E943A
:10332000B010E80EF91EC3E0C15021F120E030E0FA
:1033300040E251E4C301B2010E94F4342B013C018C
:103340000E949C364B01A12CB12C2AE0B501A401AE
:103350008BED95E009DFE80EF91EC501B4010E946E
:1033600093349B01AC01C301B2010E94CA352B0109
:103370003C01DACFC701CF91FF90EF90DF90CF9063
:10338000BF90AF909F908F907F906F905F904F9085
:103390000895D5CE0F931F93CF93DF93EC018A014D
:1033A000888191E0909303048093020410920104B9
:1033B0001092000489819A8124E0629FB001112457
:1033C0006A5F7F4FDC01ED91FC910190F081E02D6F
:1033D000199560E070E089819A8191DC60E070E08D
:1033E00089819A818CDCB80189819A8188DC612F7E
:1033F00070E089819A8183DC89819A81DF91CF9104
:103400001F910F914ACC1F93CF93DF93EC01162F9E
:103410008091BB0A91E09093030480930204109280
:103420000104109200046D2F70E080EC96E067DCE0
:10343000BE01772780EC96E062DC612F80EC96E09D
:103440002CD880EC96E0DF91CF911F9126CCCF92C3
:10345000DF92EF92FF92CF93DF93EC016A017B0141
:10346000E889F98982E080834115514E6105710533
:10347000B1F060E079E08DE390E0A70196010E9451
:10348000A835DA01C9010197A109B109B695A79537
:10349000979587959C01211580E13807A8F0E88968
:1034A000F989108260E874E88EE190E0A701960146
:1034B0000E94A835DA01C9010197A109B109B695A1
:1034C000A795979587959C01EC85FD853083EE85C2
:1034D000FF852083188EEC89FD8986E08083EA8948
:1034E000FB89808180618083EA89FB898081886093
:1034F0008083EA89FB89808180688083EA89FB89EF
:1035000080818F7D8083DF91CF91FF90EF90DF905E
:10351000CF900895E6E6FAE090E02FEF3FEF98179E
:1035200091F04191242748E0B901617077273695E1
:103530002795672B21F051E0252750EA3527415088
:1035400099F79F5FECCF922F832F0895CF93C0916F
:10355000A60A8C2FDFDFEC2FF0E0E35AF54F9187BE
:10356000E1E0EC0FF0E0E35AF54F8187CE5FC093C6
:10357000A60A9091630A8091620A923038F18230F3
:1035800051F0833071F0813091F49091C8009064D3
:103590009093C80011C09091D00090649093D00097
:1035A0000BC09091300190649093300105C09091D0
:1035B000C00090649093C000909105019064909336
:1035C0000501909105019062909305014091A60A32
:1035D000843028F480915D0A90915E0A04C0809145
:1035E0005F0A9091600A50E0DC01ED91FC9102804D
:1035F000F381E02D66E67AE019959091630A809157
:10360000620A923018F1823049F0833061F08130E3
:1036100079F49091C80096FFFCCF0EC09091D00035
:1036200096FFFCCF09C09091300196FFFCCF04C0FB
:103630009091C00096FFFCCF909105019F7B9093E5
:103640000501909105019F7D90930501843068F5F7
:1036500080915D0A90915E0ADC01ED91FC910284FB
:10366000F385E02D199597FFF3CF1092A60A33D971
:103670002091B00A3091B10ADC01CB01820F931F77
:10368000A11DB11D8093B60A9093B70AA093B80A02
:10369000B093B90A8091AC0A9091AD0A01969093CB
:1036A000AD0A8093AC0ACF91089580915F0A909102
:1036B000600ADC01ED91FC910284F385E02D1995FF
:1036C00097FFF3CFD2CF1F93CF93DF93EC01162F49
:1036D00088818F3F31F48091BD0A9091BE0AAEDBA4
:1036E00002C060E056D860E08B8153D860E8CE011C
:1036F00017DB612FCE0114DB88818F3F09F49DDB3E
:1037000061E08B81DF91CF911F9143C8EF92FF92CF
:103710000F931F93CF93DF93EC017A01122F062FA3
:103720000F7788818F3F31F48091BD0A9091BE0A56
:1037300085DB02C060E02DD860E08B812AD8602F45
:10374000CE01EEDA112341F06FEFCE01E9DAF70195
:1037500081937F011150F6CF88818F3F09F46DDB93
:1037600061E08B81DF91CF911F910F91FF90EF90DE
:1037700010C88F929F92AF92BF92CF92DF92EF923A
:10378000FF920F931F93CF93DF93EC016A017B01AC
:1037900020E030E0A901C701B6010E948F3418165D
:1037A0000CF04FC01AAA1BAA1CAA1DAACEAADFAAF7
:1037B000E8AEF9AE8AAD882309F443C00E8D1F8DA3
:1037C000F80180809180A280B380A5019401C70197
:1037D000B6010E948F3487FF06C0F801C082D182F3
:1037E000E282F3820EC020E030E0A901C501B401FD
:1037F0000E948F3487FF05C0F80110821182128267
:1038000013828EA09FA0A8A4B9A4CEA8DFA8E8AC7C
:10381000F9ACA7019601C501B4010E941B37181627
:1038200064F0CAA8DBA8ECA8FDA8A7019601C50111
:10383000B4010E948F3487FF04C0CEA2DFA2E8A6A5
:10384000F9A6DF91CF911F910F91FF90EF90DF903C
:10385000CF90BF90AF909F908F9008954F925F92BE
:103860006F927F928F929F92AF92BF92CF92DF9290
:10387000EF92FF92CF93DF93CDB7DEB72C970FB6C1
:10388000F894DEBF0FBECDBF26D8C090B60AD09048
:10389000B70AE090B80AF090B90A20911403309169
:1038A0001503C616D706E806F90640F4C90180617B
:1038B0009093150380931403C4DA06C0C9018F7E68
:1038C000909315038093140367E084E19AE087DA0C
:1038D0008111ACC067E082E999E081DA8111A6C06C
:1038E00067E080E199E07BDA8111A0C067E08EE8B3
:1038F00098E075DA81119AC067E08CE098E06FDAA1
:10390000811194C067E08AE897E069DA81118EC07E
:103910001092C00A1092BF0A60E089E00E94C913A9
:1039200080911403909115039B7F909315038093CE
:1039300014038091290A90912A0AA0912B0AB09130
:103940002C0A89879A87AB87BC8720E030E042E069
:1039500054E4BC01CD010E941B3718160CF47CC046
:103960004090A7095090A8096090A9097090AA09F1
:1039700020E030E042E054E4C301B2010E941B3772
:1039800018160CF469C08090250990902609A09023
:103990002709B090280920E030E042E054E4C50156
:1039A000B4010E941B3718160CF456C0C090A3082F
:1039B000D090A408E090A508F090A60820E030E0A0
:1039C00042E054E4C701B6010E941B3718160CF4FC
:1039D00043C08091210890912208A0912308B091C2
:1039E00024088D839E83AF83B88720E030E042E0D7
:1039F00054E4BC01CD010E941B3718166CF1809174
:103A00009F079091A007A091A107B091A207898379
:103A10009A83AB83BC8320E030E042E054E4BC01F5
:103A2000CD010E941B371816BCF019C08091BF0A47
:103A30009091C00A01969093C00A8093BF0A06979E
:103A40000CF477CF61E089E00E94C91380911403E0
:103A500090911503946069CF89E090E03EC020E02A
:103A600030E0A90169857A858B859C850E948F3419
:103A700087FD31C020E030E0A901C301B2010E94FE
:103A80008F3487FD28C020E030E0A901C501B401D2
:103A90000E948F3487FD1FC020E030E0A901C701DC
:103AA000B6010E948F3487FD16C020E030E0A901E6
:103AB0006D817E818F8198850E948F3487FD0BC038
:103AC00020E030E0A90169817A818B819C810E948C
:103AD0008F3487FF04C08DE090E00E946C342C96F8
:103AE0000FB6F894DEBF0FBECDBFDF91CF91FF9030
:103AF000EF90DF90CF90BF90AF909F908F907F908E
:103B00006F905F904F9008958F929F92AF92BF9267
:103B1000CF92DF92EF92FF9260911A0370911B0394
:103B200080E090E00E94933420E030E040E251E4F5
:103B30000E942F364B015C016091160370911703B0
:103B400080E090E00E94933420E030E048EC52E4C2
:103B50000E942F369B01AC0160E070E080E89FE39B
:103B60000E94CA356B017C016091180370911903A2
:103B700080E090E00E94933420E030E040E251E4A5
:103B80000E942F369B01AC01C501B4010E94CA35C9
:103B90009B01AC01C701B6010E942F3620E030E046
:103BA00040E855E40E94F4346B017C01A5019401C6
:103BB0000E94F4349B01AC0160E070E080E895E481
:103BC0000E94CA354B015C012091290A30912A0AD2
:103BD00040912B0A50912C0AC701B6010E94F4347F
:103BE000A50194010E94CB35AB01BC0188ED99E0A1
:103BF000C0DD2091A7093091A8094091A9095091F1
:103C0000AA09C701B6010E94F434A50194010E94DB
:103C1000CB35AB01BC0186E599E0ABDD20912509F0
:103C2000309126094091270950912809C701B60112
:103C30000E94F434A50194010E94CB35AB01BC0174
:103C400084ED98E096DD2091A3083091A40840917E
:103C5000A5085091A608C701B6010E94F434A50139
:103C600094010E94CB35AB01BC0182E598E081DD77
:103C70002091210830912208409123085091240876
:103C8000C701B6010E94F434A50194010E94CB350E
:103C9000AB01BC0180ED97E06CDD20919F07309176
:103CA000A0074091A1075091A207C701B6010E9449
:103CB000F434A50194010E94CB35AB01BC018EE424
:103CC00097E0FF90EF90DF90CF90BF90AF909F90E4
:103CD0008F904FCDCF93DF9300D000D0CDB7DEB71C
:103CE000789484B5826084BD84B5816084BD85B5D7
:103CF000826085BD85B5816085BD80916E008160E3
:103D000080936E0010928100809181008260809388
:103D1000810080918100816080938100809180008A
:103D20008160809380008091B10084608093B100B5
:103D30008091B00081608093B0008091910082609A
:103D40008093910080919100816080939100809197
:103D500090008160809390008091A10082608093A8
:103D6000A1008091A10081608093A1008091A000BA
:103D700081608093A0008091210182608093210165
:103D800080912101816080932101809120018160D7
:103D90008093200180917A00846080937A008091E2
:103DA0007A00826080937A0080917A0081608093AB
:103DB0007A0080917A00806880937A001092C10026
:103DC0001092BC061092BD061092BE061092BF065D
:103DD00010927A0610927B0610927C0610927D0655
:103DE0000E946B146B017C014B015C0128EB820E7D
:103DF0002BE0921EA11CB11C0E946B146C157D055A
:103E00008E059F0528F086169706A806B906A0F726
:103E10008BED95E09093BB068093BA0640E052ECA0
:103E200061E070E014DB0E946B1460937A0670937B
:103E30007B0680937C0690937D0668E372E0809118
:103E4000BA069091BB06A5DA0E946B146B017C0147
:103E50004B015C013AE0830E911CA11CB11C0E9435
:103E60006B146C157D058E059F0528F08616970648
:103E7000A806B906A0F711E010938E0661E086E16E
:103E80000E94F71361E086E10E94C91340E052EC02
:103E900061E070E08BED95E0DADA80915B0A909159
:103EA0005C0A0E944F1660E880E09AD86AE070E0F1
:103EB00080E090E00E94331460E070E08AE794E4D0
:103EC000BAD860E070E088EC94E4B5D880E58093DF
:103ED000BB0A80EC96E00E944F16109303048CE717
:103EE0008093020410920104109200046091BB0AB6
:103EF00070E0660F771F80EC96E00E944D1260E044
:103F000080EC96E00E94F21563E08CE70E947F1738
:103F10001092B7038093B60380EC96E00E940512DE
:103F20007C0180EC96E00E9405129A83898380ECE4
:103F300096E00E94051229812F7030E0322F22274F
:103F4000280F311DFF2444E0EE0CFF1C4A95E1F7D9
:103F500089819A81992754E0959587955A95E1F73B
:103F60008E0D9F1D0A9729F42031354011F41093CE
:103F7000BC0A8091620A823039F0833041F081308E
:103F800049F48EE395E008C081EA94E005C084E03E
:103F900094E002C08BED95E090935E0A80935D0AF9
:103FA00040E052EC61E070E080915D0A90915E0A21
:103FB0004EDA8091630A823078F080910401806645
:103FC00080930401809105018F7B8093050180918E
:103FD00005018F7D8093050180915D0A90915E0AB5
:103FE000DC01ED91FC910284F385E02D199597FF9A
:103FF000F3CF1092A60A1092A70A1092AF0A10925D
:10400000AE0A1092AD0A1092AC0A1092AB0A10924E
:10401000AA0A02E812E0E8EEF3E0FA83E983A98055
:10402000BA80F8E1AF0EB11C6801E980FA80C701DF
:104030000E942F03D6018D939D936D01B4E0EB0E8A
:10404000F11CEA14FB0499F7E981FA81E851FC4F6D
:10405000FA83E983045F1F4FE034FF4101F78EE6E6
:1040600092E09A838983E12CF12CC7010E942F03EF
:10407000A981BA818D939D93BA83A983B4E0EB0E95
:10408000F11CE4E1EE16F10481F7A8E7B2E0BA838F
:10409000A983C7010E942F03E981FA81819391933B
:1040A000FA83E983F4E0EF0EF11C28E2E216F10452
:1040B00081F788E290E00E942F039093D7028093CB
:1040C000D6028CE290E00E942F039093D902809355
:1040D000D80280E390E00E942F039093DB0280934C
:1040E000DA0284E390E00E942F039093DD02809334
:1040F000DC0288E390E00E942F039093DF0280931C
:10410000DE028CE390E00E942F039093E102809303
:10411000E00280E490E00E942F039093E3028093FA
:10412000E20284E490E00E942F039093E5028093E2
:10413000E40288E490E00E942F039093E7028093CA
:10414000E6028CE490E00E942F0390931703809383
:10415000160380E590E00E942F039093190380934B
:10416000180384E590E00E942F0390931B03809333
:104170001A030CE113E088E590E09A838983898132
:104180009A810E942F03D8018D939D938D01E9811F
:10419000FA813496FA83E983EC36F10581F71092BF
:1041A0001C0A10921B0A609188027091890280E0BB
:1041B00090E00E94933420E030E44CE156E40E9409
:1041C0002F366093490A70934A0A80934B0A909362
:1041D0004C0A60918A0270918B0280E090E00E940C
:1041E000933420E030E048EC52E40E942F36609394
:1041F0004D0A70934E0A80934F0A9093500A609133
:104200008C0270918D0280E090E00E949334609364
:10421000510A7093520A8093530A9093540A609102
:104220001A0370911B0380E090E00E94933420E019
:1042300030E040E251E40E942F366B017C01609334
:10424000250A7093260A8093270A9093280A81E012
:1042500090E090939A0980939909609194027091EB
:10426000950280E090E00E94933420E030E44CE13D
:1042700056E40E942F366093C7097093C809809353
:10428000C9099093CA09609196027091970280E0E3
:1042900090E00E94933420E030E048EC52E40E9429
:1042A0002F366093CB097093CC098093CD099093FE
:1042B000CE09609198027091990280E090E00E948E
:1042C00093346093CF097093D0098093D109909370
:1042D000D209C092A309D092A409E092A509F09254
:1042E000A60982E090E090931809809317096091E5
:1042F000A0027091A10280E090E00E94933420E03F
:1043000030E44CE156E40E942F36609345097093E7
:10431000460980934709909348096091A2027091E1
:10432000A30280E090E00E94933420E030E048EC6B
:1043300052E40E942F366093490970934A09809392
:104340004B0990934C096091A4027091A50280E002
:1043500090E00E94933460934D0970934E098093CE
:104360004F0990935009C0922109D0922209E092FE
:104370002309F092240983E090E0909396088093BB
:1043800095086091AC027091AD0280E090E00E94CF
:10439000933420E030E44CE156E40E942F366093E1
:1043A000C3087093C4088093C5089093C6086091B1
:1043B000AE027091AF0280E090E00E94933420E062
:1043C00030E048EC52E40E942F366093C7087093A7
:1043D000C8088093C9089093CA086091B002709190
:1043E000B10280E090E00E9493346093CB08709318
:1043F000CC088093CD089093CE08C0929F08D092AD
:10440000A008E092A108F092A20884E090E09093C6
:104410001408809313086091B8027091B90280E08B
:1044200090E00E94933420E030E44CE156E40E9496
:104430002F3660934108709342088093430890930D
:1044400044086091BA027091BB0280E090E00E9443
:10445000933420E030E048EC52E40E942F36609321
:1044600045087093460880934708909348086091E8
:10447000BC027091BD0280E090E00E949334609392
:10448000490870934A0880934B0890934C08C09257
:104490001D08D0921E08E0921F08F092200885E0C7
:1044A00090E090939207809391076091C40270917D
:1044B000C50280E090E00E94933420E030E44CE1BB
:1044C00056E40E942F366093BF077093C007809315
:1044D000C1079093C2076091C6027091C70280E045
:1044E00090E00E94933420E030E048EC52E40E94D7
:1044F0002F366093C3077093C4078093C5079093CA
:10450000C6076091C8027091C90280E090E00E94E5
:1045100093346093C7077093C8078093C90790933B
:10452000CA07C0929B07D0929C07E0929D07F09229
:104530009E0786E090E09093100780930F076091AC
:10454000D0027091D10280E090E00E94933420E08C
:1045500030E44CE156E40E942F3660933D0770939F
:104560003E0780933F07909340076091D20270917D
:10457000D30280E090E00E94933420E030E048ECE9
:1045800052E40E942F366093410770934207809354
:104590004307909344076091D4027091D50280E064
:1045A00090E00E9493346093450770934607809390
:1045B000470790934807C0921907D0921A07E092D4
:1045C0001B07F0921C070E946B14672B682B692B4A
:1045D00041F40E946B14623071058105910508F465
:1045E00015C10E946B1400913C0310913D03209172
:1045F0003E0330913F03601771078207930740F431
:1046000060933C0370933D0380933E0390933F037C
:1046100000913C0310913D0320913E0330913F03F4
:104620006B017C01C01AD10AE20AF30A97018601E4
:104630000A3F11052105310508F4E8C060933C03E9
:1046400070933D0380933E0390933F0384EF91E08A
:10465000A0E0B0E08093860690938706A09388063A
:10466000B093890610928A0610928B0610928C06DF
:1046700010928D0680917E0690917F06A091800613
:10468000B09181068093820690938306A09384065E
:10469000B09385060E946B1460937E0670937F062C
:1046A00080938006909381060E946B1460937A0633
:1046B00070937B0680937C0690937D060E946B141A
:1046C0006B017C016AE472E08091BA069091BB06AE
:1046D0000E94C9192AE041E050E060E070E080915A
:1046E000BA069091BB060E94B41861E572E0809111
:1046F000BA069091BB060E94C9192AE0B701A6012B
:104700008091BA069091BB060E94B41863E572E0EE
:104710008091BA069091BB060E94C91980917E06CD
:1047200090917F06A0918006B0918106B701A60105
:10473000481B590B6A0B7B0B2AE08091BA069091BB
:10474000BB060E94B41863E572E08091BA069091AE
:10475000BB060E94C91940917E0650917F06609168
:104760008006709181068091820690918306A091C7
:104770008406B0918506481B590B6A0B7B0B2AE017
:104780008091BA069091BB060E94B41865E572E06C
:104790008091BA069091BB060E94C9190E946B14C1
:1047A000AB01BC012AE08091BA069091BB060E9441
:1047B000B418C090BA06D090BB06DA82C98267E509
:1047C00072E0C6010E949F1867E472E089819A81B5
:1047D0000E949F180E946B146B017C014B015C01CD
:1047E00025E0820E911CA11CB11C0E946B146C155B
:1047F0007D058E059F0520F50E946B1460937E0653
:1048000070937F0680938006909381060E9498059E
:1048100025D88091EE029091EF02019731F48091BA
:10482000EC029091ED02019789F00E94211780918E
:10483000EC029091ED02019709F0F0C061E0EFC049
:1048400086169706A806B90680F6D6CF8091F002A4
:104850009091F102892B91F40E9424036093380314
:104860007093390380933A0390933B038091EE0257
:104870009091EF02019709F0D8C012C00E94240362
:10488000609334037093350380933603909337031A
:104890008091EE029091EF02019709F0C6C02FC0FF
:1048A0000E942403209138033091390340913A0348
:1048B00050913B030E94CA356B017C016091E40278
:1048C0007091E50280E090E00E94933420E030E0B7
:1048D00040E251E40E942F369B01AC01C701B601B2
:1048E0000E941B3787FDE9C00E94240360933803B0
:1048F0007093390380933A0390933B0396C0609181
:1049000078027091790280E090E00E94933420E078
:1049100030E040E251E40E942F366B017C0160914F
:104920007A0270917B0280E090E00E94933420E054
:1049300030E040E251E40E942F369B01AC01C701F8
:10494000B6010E94CB356B017C0160917C027091B5
:104950007D0280E090E00E94933420E030E040E26D
:1049600051E40E942F369B01AC01C701B6010E94A1
:10497000CB356B017C0160917E0270917F0280E0FB
:1049800090E00E94933420E030E040E251E40E9445
:104990002F369B01AC01C701B6010E94CB356B01DC
:1049A0007C01609180027091810280E090E00E9421
:1049B000933420E030E040E251E40E942F369B0126
:1049C000AC01C701B6010E94CB350E9497364B015E
:1049D0005C010E94240320913403309135034091FF
:1049E0003603509137030E94CA356B017C01C50123
:1049F000B4010E9495349B01AC01C701B6010E942D
:104A00001B3787FDEFC00E9424036093340370932B
:104A10003503809336039093370307C060E086E048
:104A20000E94C9130E941D11CECD0E9421170E9421
:104A30002403609330037093310380933203909387
:104A400033030E94240320913003309131034091BD
:104A50003203509133030E94CA356B017C0160918F
:104A6000E6027091E70280E090E00E94933420E03B
:104A700030E040E251E40E942F369B01AC01C701B7
:104A8000B6010E941B3787FD0FC00E94240360936C
:104A9000300370933103809332039093330360E0CB
:104AA00087E00E94C913C3CE0E9498050E942E1C65
:104AB00061E087E00E94C913C4CF0E9498050E945C
:104AC0002E1C6091DC027091DD0280E090E00E947B
:104AD000933420E030E040E251E40E942F36AB01F5
:104AE000BC0182E598E00E9458056091DE02709159
:104AF000DF0280E090E00E94933420E030E040E26A
:104B000051E40E942F36AB01BC0180ED97E00E947A
:104B100058056091DA027091DB0280E090E00E941B
:104B2000933420E030E040E251E40E942F36AB01A4
:104B3000BC0184ED98E00E9458056091D602709106
:104B4000D70280E090E00E94933420E030E040E221
:104B500051E40E942F36AB01BC0188ED99E00E9420
:104B600058056091D8027091D90280E090E00E94CF
:104B7000933420E030E040E251E40E942F36AB0154
:104B8000BC0186E599E00E9458056091E0027091B1
:104B9000E10280E090E00E94933420E030E040E2C7
:104BA00051E40E942F36AB01BC018EE497E00E94D5
:104BB00058056091E2027091E30280E090E00E946B
:104BC000933420E030E040E251E40E942F36AB0104
:104BD000BC018CEC96E00E9458050E94841D0E9446
:104BE0003D1744CE0E9498050E942E1C0E9424036B
:104BF00020913403309135034091360350913703AF
:104C00000E94CA356B017C01609178027091790233
:104C100080E090E00E94933420E030E040E251E4F4
:104C20000E942F364B015C0120E030E0A901C70152
:104C3000B6010E941B3718160CF0AAC1A5019401F9
:104C4000C701B6010E948F3418160CF4A1C18091DF
:104C500026039091270360916E0270916F02019775
:104C6000F9F480E090E00E94933420E030E040E2EC
:104C700051E40E942F3620E030E040EA51E40E94E7
:104C8000CA35A50194010E942F36A70196010E9402
:104C9000F43420E030E040EA51E40E94CB350AC011
:104CA00080E090E00E94933420E030E040E251E464
:104CB0000E942F36AB01BC0188ED99E00E94580597
:104CC000809126039091270360916E0270916F028C
:104CD000019789F580E090E00E94933420E030E075
:104CE00040E251E40E942F3620E030E040EA51E4F7
:104CF0000E94CA354B015C01609178027091790283
:104D000080E090E00E94933420E030E040E251E403
:104D10000E942F369B01AC01C501B4010E942F36C1
:104D2000A70196010E94F43420E030E040EA51E40B
:104D30000E94CB350AC080E090E00E94933420E0CE
:104D400030E040E251E40E942F36AB01BC0182E525
:104D500098E00E9458058091260390912703609166
:104D60006E0270916F02019789F580E090E00E94D9
:104D7000933420E030E040E251E40E942F3620E0FE
:104D800030E040EA51E40E94CA354B015C01609179
:104D900078027091790280E090E00E94933420E0E4
:104DA00030E040E251E40E942F369B01AC01C50186
:104DB000B4010E942F36A70196010E94F43420E02E
:104DC00030E040EA51E40E94CB350AC080E090E038
:104DD0000E94933420E030E040E251E40E942F36FC
:104DE000AB01BC0184ED98E00E9458058091260338
:104DF0009091270360916E0270916F02019789F57F
:104E000080E090E00E94933420E030E040E251E402
:104E10000E942F3620E030E040EA51E40E94CA357B
:104E20004B015C01609178027091790280E090E022
:104E30000E94933420E030E040E251E40E942F369B
:104E40009B01AC01C501B4010E942F36A701960158
:104E50000E94F43420E030E040EA51E40E94CB3577
:104E60000AC080E090E00E94933420E030E040E20D
:104E700051E40E942F36AB01BC018EE497E00E9402
:104E80005805809126039091270360916E027091DE
:104E90006F02019789F580E090E00E94933420E052
:104EA00030E040E251E40E942F3620E030E040EA5A
:104EB00051E40E94CA354B015C0160917802709107
:104EC000790280E090E00E94933420E030E040E2FC
:104ED00051E40E942F369B01AC01C501B4010E9430
:104EE0002F36A70196010E94F43420E030E040EA1A
:104EF00051E40E94CB350AC080E090E00E949334D8
:104F000020E030E040E251E40E942F36AB01BC01CA
:104F100086E599E00E945805809126039091270329
:104F200060916E0270916F02019711F00C947E31C6
:104F300080E090E00E94933420E030E040E251E4D1
:104F40000E942F3620E030E040EA51E40E94CA354A
:104F50004B015C01609178027091790280E090E0F1
:104F60000E94933420E030E040E251E40E942F366A
:104F70009B01AC01C501B4010E942F36A701960127
:104F80000E94F43420E030E040EA51E40C9479319E
:104F900060917A0270917B0280E090E00E949334ED
:104FA00020E030E040E251E40E942F3669837A83AA
:104FB0008B839C839B01AC01C501B4010E94CB355E
:104FC0002B013C01A5019401C701B6010E941B37CA
:104FD00018160CF05FC2A3019201C701B6010E942E
:104FE0008F3418160CF456C280912803909129032F
:104FF000A0917002B0917102BE83AD830197F1F56B
:1050000060916E0270916F0280E090E00E94933494
:1050100020E030E040E251E40E942F362B013C01B9
:10502000ED81FE81BF0180E090E00E94933420E09A
:1050300030E040E251E40E942F36A30192010E9429
:10504000CA3529813A814B815C810E942F36698360
:105050007A838B839C83A5019401C701B6010E94CA
:10506000CA359B01AC0169817A818B819C810E9448
:10507000F434A30192010E94CB350DC02D813E81F5
:10508000B90180E090E00E94933420E030E040E2FB
:1050900051E40E942F36AB01BC0188ED99E00E94DB
:1050A00058058091280390912903A0917002B09136
:1050B0007102BE83AD83019709F050C060916E020A
:1050C00070916F0280E090E00E94933420E030E025
:1050D00040E251E40E942F3669837A838B839C835C
:1050E000ED81FE81BF0180E090E00E94933420E0DA
:1050F00030E040E251E40E942F3629813A814B8111
:105100005C810E94CA352B013C0160917A0270914A
:105110007B0280E090E00E94933420E030E040E2A7
:1051200051E40E942F369B01AC01C301B2010E94E1
:105130002F362B013C01A5019401C701B6010E9445
:10514000CA359B01AC01C301B2010E94F43429812C
:105150003A814B815C810E94CB350DC02D813E810F
:10516000B90180E090E00E94933420E030E040E21A
:1051700051E40E942F36AB01BC0182E598E00E9409
:1051800058058091280390912903A0917002B09155
:105190007102BE83AD83019709F050C060916E0229
:1051A00070916F0280E090E00E94933420E030E044
:1051B00040E251E40E942F3669837A838B839C837B
:1051C000ED81FE81BF0180E090E00E94933420E0F9
:1051D00030E040E251E40E942F3629813A814B8130
:1051E0005C810E94CA352B013C0160917A0270916A
:1051F0007B0280E090E00E94933420E030E040E2C7
:1052000051E40E942F369B01AC01C301B2010E9400
:105210002F362B013C01A5019401C701B6010E9464
:10522000CA359B01AC01C301B2010E94F43429814B
:105230003A814B815C810E94CB350DC02D813E812E
:10524000B90180E090E00E94933420E030E040E239
:1052500051E40E942F36AB01BC0184ED98E00E941E
:1052600058058091280390912903A0917002B09174
:105270007102BE83AD83019709F050C060916E0248
:1052800070916F0280E090E00E94933420E030E063
:1052900040E251E40E942F3669837A838B839C839A
:1052A000ED81FE81BF0180E090E00E94933420E018
:1052B00030E040E251E40E942F3629813A814B814F
:1052C0005C810E94CA352B013C0160917A02709189
:1052D0007B0280E090E00E94933420E030E040E2E6
:1052E00051E40E942F369B01AC01C301B2010E9420
:1052F0002F362B013C01A5019401C701B6010E9484
:10530000CA359B01AC01C301B2010E94F43429816A
:105310003A814B815C810E94CB350DC02D813E814D
:10532000B90180E090E00E94933420E030E040E258
:1053300051E40E942F36AB01BC018EE497E00E943D
:1053400058058091280390912903A0917002B09193
:105350007102BE83AD83019709F050C060916E0267
:1053600070916F0280E090E00E94933420E030E082
:1053700040E251E40E942F3669837A838B839C83B9
:10538000ED81FE81BF0180E090E00E94933420E037
:1053900030E040E251E40E942F3629813A814B816E
:1053A0005C810E94CA352B013C0160917A027091A8
:1053B0007B0280E090E00E94933420E030E040E205
:1053C00051E40E942F369B01AC01C301B2010E943F
:1053D0002F362B013C01A5019401C701B6010E94A3
:1053E000CA359B01AC01C301B2010E94F43429818A
:1053F0003A814B815C810E94CB350DC02D813E816D
:10540000B90180E090E00E94933420E030E040E277
:1054100051E40E942F36AB01BC0186E599E00E9461
:1054200058058091280390912903A0917002B091B2
:105430007102BE83AD83019709F05DC760916E0272
:1054400070916F0280E090E00E94933420E030E0A1
:1054500040E251E40E942F3669837A838B839C83D8
:10546000ED81FE81BF0180E090E00E94933420E056
:1054700030E040E251E40E942F3629813A814B818D
:105480005C810E94CA352B013C0160917A027091C7
:105490007B02CFC460917C0270917D0280E090E03D
:1054A0000E94933420E030E040E251E40E942F3625
:1054B00069837A838B839C839B01AC01C301B20116
:1054C0000E94CB354B015C01A3019201C701B601DB
:1054D0000E941B3718160CF05DC2A5019401C7018C
:1054E000B6010E948F3418160CF454C280912A031E
:1054F00090912B0320917202309173023E832D8391
:105500000197F1F5609170027091710280E090E076
:105510000E94933420E030E040E251E40E942F36B4
:105520004B015C01AD81BE81BD0180E090E00E9435
:10553000933420E030E040E251E40E942F36A50190
:1055400094010E94CA3529813A814B815C810E9475
:105550002F3669837A838B839C83A3019201C701D1
:10556000B6010E94CA359B01AC0169817A818B81A9
:105570009C810E94F434A50194010E94CB350DC09A
:10558000ED81FE81BF0180E090E00E94933420E035
:1055900030E040E251E40E942F36AB01BC0188EDBF
:1055A00099E00E94580580912A0390912B03209145
:1055B0007202309173023E832D83019709F050C02F
:1055C000609170027091710280E090E00E949334CB
:1055D00020E030E040E251E40E942F3669837A8374
:1055E0008B839C83AD81BE81BD0180E090E00E94F1
:1055F000933420E030E040E251E40E942F362981CC
:105600003A814B815C810E94CA354B015C016091FB
:105610007C0270917D0280E090E00E94933420E053
:1056200030E040E251E40E942F369B01AC01C501FD
:10563000B4010E942F364B015C01A3019201C70106
:10564000B6010E94CA359B01AC01C501B4010E949C
:10565000F43429813A814B815C810E94CB350DC0A5
:10566000ED81FE81BF0180E090E00E94933420E054
:1056700030E040E251E40E942F36AB01BC0182E5EC
:1056800098E00E94580580912A0390912B03209165
:105690007202309173023E832D83019709F050C04E
:1056A000609170027091710280E090E00E949334EA
:1056B00020E030E040E251E40E942F3669837A8393
:1056C0008B839C83AD81BE81BD0180E090E00E9410
:1056D000933420E030E040E251E40E942F362981EB
:1056E0003A814B815C810E94CA354B015C0160911B
:1056F0007C0270917D0280E090E00E94933420E073
:1057000030E040E251E40E942F369B01AC01C5011C
:10571000B4010E942F364B015C01A3019201C70125
:10572000B6010E94CA359B01AC01C501B4010E94BB
:10573000F43429813A814B815C810E94CB350DC0C4
:10574000ED81FE81BF0180E090E00E94933420E073
:1057500030E040E251E40E942F36AB01BC0184ED01
:1057600098E00E94580580912A0390912B03209184
:105770007202309173023E832D83019709F050C06D
:10578000609170027091710280E090E00E94933409
:1057900020E030E040E251E40E942F3669837A83B2
:1057A0008B839C83AD81BE81BD0180E090E00E942F
:1057B000933420E030E040E251E40E942F3629810A
:1057C0003A814B815C810E94CA354B015C0160913A
:1057D0007C0270917D0280E090E00E94933420E092
:1057E00030E040E251E40E942F369B01AC01C5013C
:1057F000B4010E942F364B015C01A3019201C70145
:10580000B6010E94CA359B01AC01C501B4010E94DA
:10581000F43429813A814B815C810E94CB350DC0E3
:10582000ED81FE81BF0180E090E00E94933420E092
:1058300030E040E251E40E942F36AB01BC018EE41F
:1058400097E00E94580580912A0390912B032091A4
:105850007202309173023E832D83019709F050C08C
:10586000609170027091710280E090E00E94933428
:1058700020E030E040E251E40E942F3669837A83D1
:105880008B839C83AD81BE81BD0180E090E00E944E
:10589000933420E030E040E251E40E942F36298129
:1058A0003A814B815C810E94CA354B015C01609159
:1058B0007C0270917D0280E090E00E94933420E0B1
:1058C00030E040E251E40E942F369B01AC01C5015B
:1058D000B4010E942F364B015C01A3019201C70164
:1058E000B6010E94CA359B01AC01C501B4010E94FA
:1058F000F43429813A814B815C810E94CB350DC003
:10590000ED81FE81BF0180E090E00E94933420E0B1
:1059100030E040E251E40E942F36AB01BC0186E545
:1059200099E00E94580580912A0390912B032091C1
:105930007202309173023E832D83019709F0DBC41C
:10594000609170027091710280E090E0ECD720E0ED
:1059500030E040E251E40E942F3669837A838B83E2
:105960009C83AD81BE81BD0180E090E0DCD720E06A
:1059700030E040E251E40E942F3629813A814B8188
:105980005C810E94CA354B015C0160917C02709180
:105990007D0292C460917E0270917F0280E090E06F
:1059A000C2D720E030E040E251E40E942F36698304
:1059B0007A838B839C839B01AC01C501B4010E9457
:1059C000CB352B013C01A5019401C701B6010E9412
:1059D0001B3718160CF046C2A3019201C701B6018D
:1059E0009ED718160CF43EC280912C0390912D0383
:1059F00020917402309175023E832D830197D9F571
:105A0000609172027091730280E090E08CD720E088
:105A100030E040E251E40E942F362B013C01AD8181
:105A2000BE81BD0180E090E07ED720E030E040E222
:105A300051E40E942F36A30192010E94CA352981A8
:105A40003A814B815C810E942F3669837A838B83F4
:105A50009C83A5019401C701B6010E94CA359B0130
:105A6000AC0169817A818B819C81BED7A3019201AF
:105A70000E94CB350CC0ED81FE81BF0180E090E03B
:105A800052D720E030E040E251E40E942F36AB01D3
:105A9000BC0188ED99E00E94580580912C039091FB
:105AA0002D0320917402309175023E832D8301975E
:105AB00009F04CC0609172027091730280E090E036
:105AC00032D720E030E040E251E40E942F36698373
:105AD0007A838B839C83AD81BE81BD0180E090E0A1
